S011000049435F5465737465722E73726563B1
S11300000C942A000C9447000C9447000C9447006D
S11300100C9447000C9447000C9447000C94470040
S11300200C9447000C9447000C9447000C94470030
S11300300C9447000C9447000C9447000C94470020
S11300400C9447000C9447000C9447000C94470010
S11300500C94470011241FBECFE5D8E0DEBFCDBF0E
S113006010E0A0E6B0E0E8E8F3E002C005900D92ED
S1130070A237B107D9F725E0A2E7B0E001C01D928D
S1130080A936B207E1F70E946B010C94C2010C94EB
S11300900000CF92DF92EF92FF920F931F93CF93C2
S11300A0DF9380E0B2C041E050E0082E02C0440F6C
S11300B0551F0A94E2F75093BB024093BA02209171
S11300C0610030916200F901E80FF11D90819C34C8
S11300D019F0983409F04CC0A3E7B0E054969C9111
S11300E05497C92FD0E0CD58DF4F88879F5F54962F
S11300F09C9354978A0100951095012E000C220BB5
S1130100330BCD90DD90ED90FC901397C022D1225B
S1130110E222F322CD92DD92ED92FC92139790812C
S11301209C3469F440917700509178006091790093
S113013070917A00402351236223732310C00091ED
S11301407700109178002091790030917A00052E83
S1130150000C660B770B402B512B622B732B4093B7
S11301607700509378006093790070937A004CC0C4
S1130170903311F0973431F5E3E7F0E08A01052E6E
S1130180000C220B330BC080D180E280F3800C2959
S11301901D292E293F29008311832283338340950F
S11301A05095052E000C660B770B04811581268172
S11301B03781402351236223732344835583668309
S11301C0778322C0913311F09635F1F4052E000C9B
S11301D0660B770BE3E7F0E0008111812281338124
S11301E0042B152B262B372B008311832283338377
S11301F00481158126813781402B512B622B732B6F
S113020044835583668377838F5F823008F44BCFB2
S1130210DF91CF911F910F91FF90EF90DF90CF90DE
S11302200895E3E7F0E080818ABB80819181A28117
S1130230B381892F9A2FAB2FBB2787BB84818BBBBC
S113024084819581A681B781892F9A2FAB2FBB27F3
S113025088BB29B386B390E0982F8827820F911D1D
S11302609093BD028093BC020895E3E7F0E080819F
S11302708ABB80819181A281B381892F9A2FAB2F70
S1130280BB2787BB80819181A281B381CD01AA273D
S1130290BB2784BB84818BBB84819581A681B78174
S11302A0492F5A2F6B2F772748BBCD01AA27BB278D
S11302B088BB29B386B390E0982F8827820F911DBD
S11302C023B330E033272227820F931F9093BD027C
S11302D08093BC0208958091720081114BC080917B
S11302E06100909162000E944900809168058E30FF
S11302F011F0803119F40E94110104C0883159F7BA
S11303000E94350120E030E02FC080917700909169
S11303107800A0917900B0917A00F901ED58FF4F6F
S1130320E085AC01BD010E2E04C076956795579506
S113033047950A94D2F78091BC029091BD0202C005
S113034096958795EA95E2F7A0E0B0E08427952793
S1130350A627B72780FF06C0109260001ABA17BA02
S113036014BA08C02F5F3F4F8091870090E0281790
S113037039075CF2809160008111ADCF81E08093F8
S10B03806000A9CFF894FFCF3F
S1130388016300303030303048473048483030302E
S1050398560009
S9030000FC
